{
  "contractName": "DaksNFT",
  "abi": [
    {
      "inputs": [
        {
          "internalType": "address",
          "name": "_tokenAddress",
          "type": "address"
        }
      ],
      "stateMutability": "nonpayable",
      "type": "constructor"
    },
    {
      "anonymous": false,
      "inputs": [
        {
          "indexed": true,
          "internalType": "address",
          "name": "owner",
          "type": "address"
        },
        {
          "indexed": true,
          "internalType": "address",
          "name": "approved",
          "type": "address"
        },
        {
          "indexed": true,
          "internalType": "uint256",
          "name": "tokenId",
          "type": "uint256"
        }
      ],
      "name": "Approval",
      "type": "event"
    },
    {
      "anonymous": false,
      "inputs": [
        {
          "indexed": true,
          "internalType": "address",
          "name": "owner",
          "type": "address"
        },
        {
          "indexed": true,
          "internalType": "address",
          "name": "operator",
          "type": "address"
        },
        {
          "indexed": false,
          "internalType": "bool",
          "name": "approved",
          "type": "bool"
        }
      ],
      "name": "ApprovalForAll",
      "type": "event"
    },
    {
      "anonymous": false,
      "inputs": [
        {
          "indexed": true,
          "internalType": "address",
          "name": "previousOwner",
          "type": "address"
        },
        {
          "indexed": true,
          "internalType": "address",
          "name": "newOwner",
          "type": "address"
        }
      ],
      "name": "OwnershipTransferred",
      "type": "event"
    },
    {
      "anonymous": false,
      "inputs": [
        {
          "indexed": true,
          "internalType": "address",
          "name": "from",
          "type": "address"
        },
        {
          "indexed": true,
          "internalType": "address",
          "name": "to",
          "type": "address"
        },
        {
          "indexed": true,
          "internalType": "uint256",
          "name": "tokenId",
          "type": "uint256"
        }
      ],
      "name": "Transfer",
      "type": "event"
    },
    {
      "inputs": [
        {
          "internalType": "address",
          "name": "to",
          "type": "address"
        },
        {
          "internalType": "uint256",
          "name": "tokenId",
          "type": "uint256"
        }
      ],
      "name": "approve",
      "outputs": [],
      "stateMutability": "nonpayable",
      "type": "function"
    },
    {
      "inputs": [
        {
          "internalType": "address",
          "name": "owner",
          "type": "address"
        }
      ],
      "name": "balanceOf",
      "outputs": [
        {
          "internalType": "uint256",
          "name": "",
          "type": "uint256"
        }
      ],
      "stateMutability": "view",
      "type": "function",
      "constant": true
    },
    {
      "inputs": [
        {
          "internalType": "uint256",
          "name": "tokenId",
          "type": "uint256"
        }
      ],
      "name": "getApproved",
      "outputs": [
        {
          "internalType": "address",
          "name": "",
          "type": "address"
        }
      ],
      "stateMutability": "view",
      "type": "function",
      "constant": true
    },
    {
      "inputs": [
        {
          "internalType": "address",
          "name": "owner",
          "type": "address"
        },
        {
          "internalType": "address",
          "name": "operator",
          "type": "address"
        }
      ],
      "name": "isApprovedForAll",
      "outputs": [
        {
          "internalType": "bool",
          "name": "",
          "type": "bool"
        }
      ],
      "stateMutability": "view",
      "type": "function",
      "constant": true
    },
    {
      "inputs": [],
      "name": "name",
      "outputs": [
        {
          "internalType": "string",
          "name": "",
          "type": "string"
        }
      ],
      "stateMutability": "view",
      "type": "function",
      "constant": true
    },
    {
      "inputs": [],
      "name": "owner",
      "outputs": [
        {
          "internalType": "address",
          "name": "",
          "type": "address"
        }
      ],
      "stateMutability": "view",
      "type": "function",
      "constant": true
    },
    {
      "inputs": [
        {
          "internalType": "uint256",
          "name": "tokenId",
          "type": "uint256"
        }
      ],
      "name": "ownerOf",
      "outputs": [
        {
          "internalType": "address",
          "name": "",
          "type": "address"
        }
      ],
      "stateMutability": "view",
      "type": "function",
      "constant": true
    },
    {
      "inputs": [],
      "name": "rate",
      "outputs": [
        {
          "internalType": "uint256",
          "name": "",
          "type": "uint256"
        }
      ],
      "stateMutability": "view",
      "type": "function",
      "constant": true
    },
    {
      "inputs": [],
      "name": "renounceOwnership",
      "outputs": [],
      "stateMutability": "nonpayable",
      "type": "function"
    },
    {
      "inputs": [
        {
          "internalType": "address",
          "name": "from",
          "type": "address"
        },
        {
          "internalType": "address",
          "name": "to",
          "type": "address"
        },
        {
          "internalType": "uint256",
          "name": "tokenId",
          "type": "uint256"
        }
      ],
      "name": "safeTransferFrom",
      "outputs": [],
      "stateMutability": "nonpayable",
      "type": "function"
    },
    {
      "inputs": [
        {
          "internalType": "address",
          "name": "from",
          "type": "address"
        },
        {
          "internalType": "address",
          "name": "to",
          "type": "address"
        },
        {
          "internalType": "uint256",
          "name": "tokenId",
          "type": "uint256"
        },
        {
          "internalType": "bytes",
          "name": "data",
          "type": "bytes"
        }
      ],
      "name": "safeTransferFrom",
      "outputs": [],
      "stateMutability": "nonpayable",
      "type": "function"
    },
    {
      "inputs": [
        {
          "internalType": "address",
          "name": "operator",
          "type": "address"
        },
        {
          "internalType": "bool",
          "name": "approved",
          "type": "bool"
        }
      ],
      "name": "setApprovalForAll",
      "outputs": [],
      "stateMutability": "nonpayable",
      "type": "function"
    },
    {
      "inputs": [
        {
          "internalType": "bytes4",
          "name": "interfaceId",
          "type": "bytes4"
        }
      ],
      "name": "supportsInterface",
      "outputs": [
        {
          "internalType": "bool",
          "name": "",
          "type": "bool"
        }
      ],
      "stateMutability": "view",
      "type": "function",
      "constant": true
    },
    {
      "inputs": [],
      "name": "symbol",
      "outputs": [
        {
          "internalType": "string",
          "name": "",
          "type": "string"
        }
      ],
      "stateMutability": "view",
      "type": "function",
      "constant": true
    },
    {
      "inputs": [],
      "name": "tokenAddress",
      "outputs": [
        {
          "internalType": "contract IERC20",
          "name": "",
          "type": "address"
        }
      ],
      "stateMutability": "view",
      "type": "function",
      "constant": true
    },
    {
      "inputs": [
        {
          "internalType": "uint256",
          "name": "tokenId",
          "type": "uint256"
        }
      ],
      "name": "tokenURI",
      "outputs": [
        {
          "internalType": "string",
          "name": "",
          "type": "string"
        }
      ],
      "stateMutability": "view",
      "type": "function",
      "constant": true
    },
    {
      "inputs": [
        {
          "internalType": "address",
          "name": "from",
          "type": "address"
        },
        {
          "internalType": "address",
          "name": "to",
          "type": "address"
        },
        {
          "internalType": "uint256",
          "name": "tokenId",
          "type": "uint256"
        }
      ],
      "name": "transferFrom",
      "outputs": [],
      "stateMutability": "nonpayable",
      "type": "function"
    },
    {
      "inputs": [
        {
          "internalType": "address",
          "name": "newOwner",
          "type": "address"
        }
      ],
      "name": "transferOwnership",
      "outputs": [],
      "stateMutability": "nonpayable",
      "type": "function"
    },
    {
      "inputs": [
        {
          "internalType": "uint256",
          "name": "token_amount",
          "type": "uint256"
        }
      ],
      "name": "safeMint",
      "outputs": [],
      "stateMutability": "nonpayable",
      "type": "function"
    },
    {
      "inputs": [],
      "name": "withdrawToken",
      "outputs": [],
      "stateMutability": "nonpayable",
      "type": "function"
    },
    {
      "inputs": [
        {
          "internalType": "uint256",
          "name": "_amount",
          "type": "uint256"
        }
      ],
      "name": "sell_NFT",
      "outputs": [],
      "stateMutability": "nonpayable",
      "type": "function"
    }
  ],
  "bytecode": "0x608060405260646008553480156200001657600080fd5b50604051620034343803806200343483398181016040528101906200003c91906200026e565b6040518060400160405280600781526020017f44616b734e4654000000000000000000000000000000000000000000000000008152506040518060400160405280600381526020017f44465400000000000000000000000000000000000000000000000000000000008152508160009081620000b991906200051a565b508060019081620000cb91906200051a565b505050620000ee620000e26200013660201b60201c565b6200013e60201b60201c565b80600760006101000a81548173ffffffffffffffffffffffffffffffffffffffff021916908373ffffffffffffffffffffffffffffffffffffffff1602179055505062000601565b600033905090565b6000600660009054906101000a900473ffffffffffffffffffffffffffffffffffffffff16905081600660006101000a81548173ffffffffffffffffffffffffffffffffffffffff021916908373ffffffffffffffffffffffffffffffffffffffff1602179055508173ffffffffffffffffffffffffffffffffffffffff168173ffffffffffffffffffffffffffffffffffffffff167f8be0079c531659141344cd1fd0a4f28419497f9722a3daafe3b4186f6b6457e060405160405180910390a35050565b600080fd5b600073ffffffffffffffffffffffffffffffffffffffff82169050919050565b6000620002368262000209565b9050919050565b620002488162000229565b81146200025457600080fd5b50565b60008151905062000268816200023d565b92915050565b60006020828403121562000287576200028662000204565b5b6000620002978482850162000257565b91505092915050565b600081519050919050565b7f4e487b7100000000000000000000000000000000000000000000000000000000600052604160045260246000fd5b7f4e487b7100000000000000000000000000000000000000000000000000000000600052602260045260246000fd5b600060028204905060018216806200032257607f821691505b602082108103620003385762000337620002da565b5b50919050565b60008190508160005260206000209050919050565b60006020601f8301049050919050565b600082821b905092915050565b600060088302620003a27fffffffffffffffffffffffffffffffffffffffffffffffffffffffffffffffff8262000363565b620003ae868362000363565b95508019841693508086168417925050509392505050565b6000819050919050565b6000819050919050565b6000620003fb620003f5620003ef84620003c6565b620003d0565b620003c6565b9050919050565b6000819050919050565b6200041783620003da565b6200042f620004268262000402565b84845462000370565b825550505050565b600090565b6200044662000437565b620004538184846200040c565b505050565b5b818110156200047b576200046f6000826200043c565b60018101905062000459565b5050565b601f821115620004ca5762000494816200033e565b6200049f8462000353565b81016020851015620004af578190505b620004c7620004be8562000353565b83018262000458565b50505b505050565b600082821c905092915050565b6000620004ef60001984600802620004cf565b1980831691505092915050565b60006200050a8383620004dc565b9150826002028217905092915050565b6200052582620002a0565b67ffffffffffffffff811115620005415762000540620002ab565b5b6200054d825462000309565b6200055a8282856200047f565b600060209050601f8311600181146200059257600084156200057d578287015190505b620005898582620004fc565b865550620005f9565b601f198416620005a2866200033e565b60005b82811015620005cc57848901518255600182019150602085019450602081019050620005a5565b86831015620005ec5784890151620005e8601f891682620004dc565b8355505b6001600288020188555050505b505050505050565b612e2380620006116000396000f3fe608060405234801561001057600080fd5b50600436106101375760003560e01c8063715018a6116100b8578063b88d4fde1161007c578063b88d4fde14610328578063c87b56dd14610344578063ca628c7814610374578063e985e9c51461037e578063f2fde38b146103ae578063fa8081d5146103ca57610137565b8063715018a6146102a85780638da5cb5b146102b257806395d89b41146102d05780639d76ea58146102ee578063a22cb4651461030c57610137565b80632c4e722e116100ff5780632c4e722e146101f257806331c864e81461021057806342842e0e1461022c5780636352211e1461024857806370a082311461027857610137565b806301ffc9a71461013c57806306fdde031461016c578063081812fc1461018a578063095ea7b3146101ba57806323b872dd146101d6575b600080fd5b61015660048036038101906101519190611cf9565b6103e6565b6040516101639190611d41565b60405180910390f35b6101746104c8565b6040516101819190611dec565b60405180910390f35b6101a4600480360381019061019f9190611e44565b61055a565b6040516101b19190611eb2565b60405180910390f35b6101d460048036038101906101cf9190611ef9565b6105a0565b005b6101f060048036038101906101eb9190611f39565b6106b7565b005b6101fa610717565b6040516102079190611f9b565b60405180910390f35b61022a60048036038101906102259190611e44565b61071d565b005b61024660048036038101906102419190611f39565b6107f3565b005b610262600480360381019061025d9190611e44565b610813565b60405161026f9190611eb2565b60405180910390f35b610292600480360381019061028d9190611fb6565b6108c4565b60405161029f9190611f9b565b60405180910390f35b6102b061097b565b005b6102ba61098f565b6040516102c79190611eb2565b60405180910390f35b6102d86109b9565b6040516102e59190611dec565b60405180910390f35b6102f6610a4b565b6040516103039190612042565b60405180910390f35b61032660048036038101906103219190612089565b610a71565b005b610342600480360381019061033d91906121fe565b610a87565b005b61035e60048036038101906103599190611e44565b610ae9565b60405161036b9190611dec565b60405180910390f35b61037c610b51565b005b61039860048036038101906103939190612281565b610c97565b6040516103a59190611d41565b60405180910390f35b6103c860048036038101906103c39190611fb6565b610d2b565b005b6103e460048036038101906103df9190611e44565b610dae565b005b60007f80ac58cd000000000000000000000000000000000000000000000000000000007bffffffffffffffffffffffffffffffffffffffffffffffffffffffff1916827bffffffffffffffffffffffffffffffffffffffffffffffffffffffff191614806104b157507f5b5e139f000000000000000000000000000000000000000000000000000000007bffffffffffffffffffffffffffffffffffffffffffffffffffffffff1916827bffffffffffffffffffffffffffffffffffffffffffffffffffffffff1916145b806104c157506104c082610f03565b5b9050919050565b6060600080546104d7906122f0565b80601f0160208091040260200160405190810160405280929190818152602001828054610503906122f0565b80156105505780601f1061052557610100808354040283529160200191610550565b820191906000526020600020905b81548152906001019060200180831161053357829003601f168201915b5050505050905090565b600061056582610f6d565b6004600083815260200190815260200160002060009054906101000a900473ffffffffffffffffffffffffffffffffffffffff169050919050565b60006105ab82610813565b90508073ffffffffffffffffffffffffffffffffffffffff168373ffffffffffffffffffffffffffffffffffffffff160361061b576040517f08c379a000000000000000000000000000000000000000000000000000000000815260040161061290612393565b60405180910390fd5b8073ffffffffffffffffffffffffffffffffffffffff1661063a610fb8565b73ffffffffffffffffffffffffffffffffffffffff161480610669575061066881610663610fb8565b610c97565b5b6106a8576040517f08c379a000000000000000000000000000000000000000000000000000000000815260040161069f90612425565b60405180910390fd5b6106b28383610fc0565b505050565b6106c86106c2610fb8565b82611079565b610707576040517f08c379a00000000000000000000000000000000000000000000000000000000081526004016106fe906124b7565b60405180910390fd5b61071283838361110e565b505050565b60085481565b600760009054906101000a900473ffffffffffffffffffffffffffffffffffffffff1673ffffffffffffffffffffffffffffffffffffffff166323b872dd33308460085461076b9190612506565b6040518463ffffffff1660e01b815260040161078993929190612560565b6020604051808303816000875af11580156107a8573d6000803e3d6000fd5b505050506040513d601f19601f820116820180604052508101906107cc91906125ac565b5060006107d96009611374565b90506107e56009611382565b6107ef3382611398565b5050565b61080e83838360405180602001604052806000815250610a87565b505050565b6000806002600084815260200190815260200160002060009054906101000a900473ffffffffffffffffffffffffffffffffffffffff169050600073ffffffffffffffffffffffffffffffffffffffff168173ffffffffffffffffffffffffffffffffffffffff16036108bb576040517f08c379a00000000000000000000000000000000000000000000000000000000081526004016108b290612625565b60405180910390fd5b80915050919050565b60008073ffffffffffffffffffffffffffffffffffffffff168273ffffffffffffffffffffffffffffffffffffffff1603610934576040517f08c379a000000000000000000000000000000000000000000000000000000000815260040161092b906126b7565b60405180910390fd5b600360008373ffffffffffffffffffffffffffffffffffffffff1673ffffffffffffffffffffffffffffffffffffffff168152602001908152602001600020549050919050565b6109836113b6565b61098d6000611434565b565b6000600660009054906101000a900473ffffffffffffffffffffffffffffffffffffffff16905090565b6060600180546109c8906122f0565b80601f01602080910402602001604051908101604052809291908181526020018280546109f4906122f0565b8015610a415780601f10610a1657610100808354040283529160200191610a41565b820191906000526020600020905b815481529060010190602001808311610a2457829003601f168201915b5050505050905090565b600760009054906101000a900473ffffffffffffffffffffffffffffffffffffffff1681565b610a83610a7c610fb8565b83836114fa565b5050565b610a98610a92610fb8565b83611079565b610ad7576040517f08c379a0000000000000000000000000000000000000000000000000000000008152600401610ace906124b7565b60405180910390fd5b610ae384848484611666565b50505050565b6060610af482610f6d565b6000610afe6116c2565b90506000815111610b1e5760405180602001604052806000815250610b49565b80610b28846116d9565b604051602001610b39929190612713565b6040516020818303038152906040525b915050919050565b610b596113b6565b600760009054906101000a900473ffffffffffffffffffffffffffffffffffffffff1673ffffffffffffffffffffffffffffffffffffffff1663a9059cbb33600760009054906101000a900473ffffffffffffffffffffffffffffffffffffffff1673ffffffffffffffffffffffffffffffffffffffff166370a08231306040518263ffffffff1660e01b8152600401610bf39190611eb2565b602060405180830381865afa158015610c10573d6000803e3d6000fd5b505050506040513d601f19601f82011682018060405250810190610c34919061274c565b6040518363ffffffff1660e01b8152600401610c51929190612779565b6020604051808303816000875af1158015610c70573d6000803e3d6000fd5b505050506040513d601f19601f82011682018060405250810190610c9491906125ac565b50565b6000600560008473ffffffffffffffffffffffffffffffffffffffff1673ffffffffffffffffffffffffffffffffffffffff16815260200190815260200160002060008373ffffffffffffffffffffffffffffffffffffffff1673ffffffffffffffffffffffffffffffffffffffff16815260200190815260200160002060009054906101000a900460ff16905092915050565b610d336113b6565b600073ffffffffffffffffffffffffffffffffffffffff168173ffffffffffffffffffffffffffffffffffffffff1603610da2576040517f08c379a0000000000000000000000000000000000000000000000000000000008152600401610d9990612814565b60405180910390fd5b610dab81611434565b50565b80600360003373ffffffffffffffffffffffffffffffffffffffff1673ffffffffffffffffffffffffffffffffffffffff168152602001908152602001600020541015610dfa57600080fd5b600760009054906101000a900473ffffffffffffffffffffffffffffffffffffffff1673ffffffffffffffffffffffffffffffffffffffff166323b872dd303384600854610e489190612506565b6040518463ffffffff1660e01b8152600401610e6693929190612560565b6020604051808303816000875af1158015610e85573d6000803e3d6000fd5b505050506040513d601f19601f82011682018060405250810190610ea991906125ac565b5080600360003373ffffffffffffffffffffffffffffffffffffffff1673ffffffffffffffffffffffffffffffffffffffff1681526020019081526020016000206000828254610ef99190612834565b9250508190555050565b60007f01ffc9a7000000000000000000000000000000000000000000000000000000007bffffffffffffffffffffffffffffffffffffffffffffffffffffffff1916827bffffffffffffffffffffffffffffffffffffffffffffffffffffffff1916149050919050565b610f7681611839565b610fb5576040517f08c379a0000000000000000000000000000000000000000000000000000000008152600401610fac90612625565b60405180910390fd5b50565b600033905090565b816004600083815260200190815260200160002060006101000a81548173ffffffffffffffffffffffffffffffffffffffff021916908373ffffffffffffffffffffffffffffffffffffffff160217905550808273ffffffffffffffffffffffffffffffffffffffff1661103383610813565b73ffffffffffffffffffffffffffffffffffffffff167f8c5be1e5ebec7d5bd14f71427d1e84f3dd0314c0f7b2291e5b200ac8c7c3b92560405160405180910390a45050565b60008061108583610813565b90508073ffffffffffffffffffffffffffffffffffffffff168473ffffffffffffffffffffffffffffffffffffffff1614806110c757506110c68185610c97565b5b8061110557508373ffffffffffffffffffffffffffffffffffffffff166110ed8461055a565b73ffffffffffffffffffffffffffffffffffffffff16145b91505092915050565b8273ffffffffffffffffffffffffffffffffffffffff1661112e82610813565b73ffffffffffffffffffffffffffffffffffffffff1614611184576040517f08c379a000000000000000000000000000000000000000000000000000000000815260040161117b906128da565b60405180910390fd5b600073ffffffffffffffffffffffffffffffffffffffff168273ffffffffffffffffffffffffffffffffffffffff16036111f3576040517f08c379a00000000000000000000000000000000000000000000000000000000081526004016111ea9061296c565b60405180910390fd5b6111fe8383836118a5565b611209600082610fc0565b6001600360008573ffffffffffffffffffffffffffffffffffffffff1673ffffffffffffffffffffffffffffffffffffffff16815260200190815260200160002060008282546112599190612834565b925050819055506001600360008473ffffffffffffffffffffffffffffffffffffffff1673ffffffffffffffffffffffffffffffffffffffff16815260200190815260200160002060008282546112b0919061298c565b92505081905550816002600083815260200190815260200160002060006101000a81548173ffffffffffffffffffffffffffffffffffffffff021916908373ffffffffffffffffffffffffffffffffffffffff160217905550808273ffffffffffffffffffffffffffffffffffffffff168473ffffffffffffffffffffffffffffffffffffffff167fddf252ad1be2c89b69c2b068fc378daa952ba7f163c4a11628f55a4df523b3ef60405160405180910390a461136f8383836118aa565b505050565b600081600001549050919050565b6001816000016000828254019250508190555050565b6113b28282604051806020016040528060008152506118af565b5050565b6113be610fb8565b73ffffffffffffffffffffffffffffffffffffffff166113dc61098f565b73ffffffffffffffffffffffffffffffffffffffff1614611432576040517f08c379a000000000000000000000000000000000000000000000000000000000815260040161142990612a0c565b60405180910390fd5b565b6000600660009054906101000a900473ffffffffffffffffffffffffffffffffffffffff16905081600660006101000a81548173ffffffffffffffffffffffffffffffffffffffff021916908373ffffffffffffffffffffffffffffffffffffffff1602179055508173ffffffffffffffffffffffffffffffffffffffff168173ffffffffffffffffffffffffffffffffffffffff167f8be0079c531659141344cd1fd0a4f28419497f9722a3daafe3b4186f6b6457e060405160405180910390a35050565b8173ffffffffffffffffffffffffffffffffffffffff168373ffffffffffffffffffffffffffffffffffffffff1603611568576040517f08c379a000000000000000000000000000000000000000000000000000000000815260040161155f90612a78565b60405180910390fd5b80600560008573ffffffffffffffffffffffffffffffffffffffff1673ffffffffffffffffffffffffffffffffffffffff16815260200190815260200160002060008473ffffffffffffffffffffffffffffffffffffffff1673ffffffffffffffffffffffffffffffffffffffff16815260200190815260200160002060006101000a81548160ff0219169083151502179055508173ffffffffffffffffffffffffffffffffffffffff168373ffffffffffffffffffffffffffffffffffffffff167f17307eab39ab6107e8899845ad3d59bd9653f200f220920489ca2b5937696c31836040516116599190611d41565b60405180910390a3505050565b61167184848461110e565b61167d8484848461190a565b6116bc576040517f08c379a00000000000000000000000000000000000000000000000000000000081526004016116b390612b0a565b60405180910390fd5b50505050565b606060405180602001604052806000815250905090565b606060008203611720576040518060400160405280600181526020017f30000000000000000000000000000000000000000000000000000000000000008152509050611834565b600082905060005b6000821461175257808061173b90612b2a565b915050600a8261174b9190612ba1565b9150611728565b60008167ffffffffffffffff81111561176e5761176d6120d3565b5b6040519080825280601f01601f1916602001820160405280156117a05781602001600182028036833780820191505090505b5090505b6000851461182d576001826117b99190612834565b9150600a856117c89190612bd2565b60306117d4919061298c565b60f81b8183815181106117ea576117e9612c03565b5b60200101907effffffffffffffffffffffffffffffffffffffffffffffffffffffffffffff1916908160001a905350600a856118269190612ba1565b94506117a4565b8093505050505b919050565b60008073ffffffffffffffffffffffffffffffffffffffff166002600084815260200190815260200160002060009054906101000a900473ffffffffffffffffffffffffffffffffffffffff1673ffffffffffffffffffffffffffffffffffffffff1614159050919050565b505050565b505050565b6118b98383611a91565b6118c6600084848461190a565b611905576040517f08c379a00000000000000000000000000000000000000000000000000000000081526004016118fc90612b0a565b60405180910390fd5b505050565b600061192b8473ffffffffffffffffffffffffffffffffffffffff16611c6a565b15611a84578373ffffffffffffffffffffffffffffffffffffffff1663150b7a02611954610fb8565b8786866040518563ffffffff1660e01b81526004016119769493929190612c87565b6020604051808303816000875af19250505080156119b257506040513d601f19601f820116820180604052508101906119af9190612ce8565b60015b611a34573d80600081146119e2576040519150601f19603f3d011682016040523d82523d6000602084013e6119e7565b606091505b506000815103611a2c576040517f08c379a0000000000000000000000000000000000000000000000000000000008152600401611a2390612b0a565b60405180910390fd5b805181602001fd5b63150b7a0260e01b7bffffffffffffffffffffffffffffffffffffffffffffffffffffffff1916817bffffffffffffffffffffffffffffffffffffffffffffffffffffffff191614915050611a89565b600190505b949350505050565b600073ffffffffffffffffffffffffffffffffffffffff168273ffffffffffffffffffffffffffffffffffffffff1603611b00576040517f08c379a0000000000000000000000000000000000000000000000000000000008152600401611af790612d61565b60405180910390fd5b611b0981611839565b15611b49576040517f08c379a0000000000000000000000000000000000000000000000000000000008152600401611b4090612dcd565b60405180910390fd5b611b55600083836118a5565b6001600360008473ffffffffffffffffffffffffffffffffffffffff1673ffffffffffffffffffffffffffffffffffffffff1681526020019081526020016000206000828254611ba5919061298c565b92505081905550816002600083815260200190815260200160002060006101000a81548173ffffffffffffffffffffffffffffffffffffffff021916908373ffffffffffffffffffffffffffffffffffffffff160217905550808273ffffffffffffffffffffffffffffffffffffffff16600073ffffffffffffffffffffffffffffffffffffffff167fddf252ad1be2c89b69c2b068fc378daa952ba7f163c4a11628f55a4df523b3ef60405160405180910390a4611c66600083836118aa565b5050565b6000808273ffffffffffffffffffffffffffffffffffffffff163b119050919050565b6000604051905090565b600080fd5b600080fd5b60007fffffffff0000000000000000000000000000000000000000000000000000000082169050919050565b611cd681611ca1565b8114611ce157600080fd5b50565b600081359050611cf381611ccd565b92915050565b600060208284031215611d0f57611d0e611c97565b5b6000611d1d84828501611ce4565b91505092915050565b60008115159050919050565b611d3b81611d26565b82525050565b6000602082019050611d566000830184611d32565b92915050565b600081519050919050565b600082825260208201905092915050565b60005b83811015611d96578082015181840152602081019050611d7b565b60008484015250505050565b6000601f19601f8301169050919050565b6000611dbe82611d5c565b611dc88185611d67565b9350611dd8818560208601611d78565b611de181611da2565b840191505092915050565b60006020820190508181036000830152611e068184611db3565b905092915050565b6000819050919050565b611e2181611e0e565b8114611e2c57600080fd5b50565b600081359050611e3e81611e18565b92915050565b600060208284031215611e5a57611e59611c97565b5b6000611e6884828501611e2f565b91505092915050565b600073ffffffffffffffffffffffffffffffffffffffff82169050919050565b6000611e9c82611e71565b9050919050565b611eac81611e91565b82525050565b6000602082019050611ec76000830184611ea3565b92915050565b611ed681611e91565b8114611ee157600080fd5b50565b600081359050611ef381611ecd565b92915050565b60008060408385031215611f1057611f0f611c97565b5b6000611f1e85828601611ee4565b9250506020611f2f85828601611e2f565b9150509250929050565b600080600060608486031215611f5257611f51611c97565b5b6000611f6086828701611ee4565b9350506020611f7186828701611ee4565b9250506040611f8286828701611e2f565b9150509250925092565b611f9581611e0e565b82525050565b6000602082019050611fb06000830184611f8c565b92915050565b600060208284031215611fcc57611fcb611c97565b5b6000611fda84828501611ee4565b91505092915050565b6000819050919050565b6000612008612003611ffe84611e71565b611fe3565b611e71565b9050919050565b600061201a82611fed565b9050919050565b600061202c8261200f565b9050919050565b61203c81612021565b82525050565b60006020820190506120576000830184612033565b92915050565b61206681611d26565b811461207157600080fd5b50565b6000813590506120838161205d565b92915050565b600080604083850312156120a05761209f611c97565b5b60006120ae85828601611ee4565b92505060206120bf85828601612074565b9150509250929050565b600080fd5b600080fd5b7f4e487b7100000000000000000000000000000000000000000000000000000000600052604160045260246000fd5b61210b82611da2565b810181811067ffffffffffffffff8211171561212a576121296120d3565b5b80604052505050565b600061213d611c8d565b90506121498282612102565b919050565b600067ffffffffffffffff821115612169576121686120d3565b5b61217282611da2565b9050602081019050919050565b82818337600083830152505050565b60006121a161219c8461214e565b612133565b9050828152602081018484840111156121bd576121bc6120ce565b5b6121c884828561217f565b509392505050565b600082601f8301126121e5576121e46120c9565b5b81356121f584826020860161218e565b91505092915050565b6000806000806080858703121561221857612217611c97565b5b600061222687828801611ee4565b945050602061223787828801611ee4565b935050604061224887828801611e2f565b925050606085013567ffffffffffffffff81111561226957612268611c9c565b5b612275878288016121d0565b91505092959194509250565b6000806040838503121561229857612297611c97565b5b60006122a685828601611ee4565b92505060206122b785828601611ee4565b9150509250929050565b7f4e487b7100000000000000000000000000000000000000000000000000000000600052602260045260246000fd5b6000600282049050600182168061230857607f821691505b60208210810361231b5761231a6122c1565b5b50919050565b7f4552433732313a20617070726f76616c20746f2063757272656e74206f776e6560008201527f7200000000000000000000000000000000000000000000000000000000000000602082015250565b600061237d602183611d67565b915061238882612321565b604082019050919050565b600060208201905081810360008301526123ac81612370565b9050919050565b7f4552433732313a20617070726f76652063616c6c6572206973206e6f7420746f60008201527f6b656e206f776e6572206e6f7220617070726f76656420666f7220616c6c0000602082015250565b600061240f603e83611d67565b915061241a826123b3565b604082019050919050565b6000602082019050818103600083015261243e81612402565b9050919050565b7f4552433732313a2063616c6c6572206973206e6f7420746f6b656e206f776e6560008201527f72206e6f7220617070726f766564000000000000000000000000000000000000602082015250565b60006124a1602e83611d67565b91506124ac82612445565b604082019050919050565b600060208201905081810360008301526124d081612494565b9050919050565b7f4e487b7100000000000000000000000000000000000000000000000000000000600052601160045260246000fd5b600061251182611e0e565b915061251c83611e0e565b9250817fffffffffffffffffffffffffffffffffffffffffffffffffffffffffffffffff0483118215151615612555576125546124d7565b5b828202905092915050565b60006060820190506125756000830186611ea3565b6125826020830185611ea3565b61258f6040830184611f8c565b949350505050565b6000815190506125a68161205d565b92915050565b6000602082840312156125c2576125c1611c97565b5b60006125d084828501612597565b91505092915050565b7f4552433732313a20696e76616c696420746f6b656e2049440000000000000000600082015250565b600061260f601883611d67565b915061261a826125d9565b602082019050919050565b6000602082019050818103600083015261263e81612602565b9050919050565b7f4552433732313a2061646472657373207a65726f206973206e6f74206120766160008201527f6c6964206f776e65720000000000000000000000000000000000000000000000602082015250565b60006126a1602983611d67565b91506126ac82612645565b604082019050919050565b600060208201905081810360008301526126d081612694565b9050919050565b600081905092915050565b60006126ed82611d5c565b6126f781856126d7565b9350612707818560208601611d78565b80840191505092915050565b600061271f82856126e2565b915061272b82846126e2565b91508190509392505050565b60008151905061274681611e18565b92915050565b60006020828403121561276257612761611c97565b5b600061277084828501612737565b91505092915050565b600060408201905061278e6000830185611ea3565b61279b6020830184611f8c565b9392505050565b7f4f776e61626c653a206e6577206f776e657220697320746865207a65726f206160008201527f6464726573730000000000000000000000000000000000000000000000000000602082015250565b60006127fe602683611d67565b9150612809826127a2565b604082019050919050565b6000602082019050818103600083015261282d816127f1565b9050919050565b600061283f82611e0e565b915061284a83611e0e565b9250828203905081811115612862576128616124d7565b5b92915050565b7f4552433732313a207472616e736665722066726f6d20696e636f72726563742060008201527f6f776e6572000000000000000000000000000000000000000000000000000000602082015250565b60006128c4602583611d67565b91506128cf82612868565b604082019050919050565b600060208201905081810360008301526128f3816128b7565b9050919050565b7f4552433732313a207472616e7366657220746f20746865207a65726f2061646460008201527f7265737300000000000000000000000000000000000000000000000000000000602082015250565b6000612956602483611d67565b9150612961826128fa565b604082019050919050565b6000602082019050818103600083015261298581612949565b9050919050565b600061299782611e0e565b91506129a283611e0e565b92508282019050808211156129ba576129b96124d7565b5b92915050565b7f4f776e61626c653a2063616c6c6572206973206e6f7420746865206f776e6572600082015250565b60006129f6602083611d67565b9150612a01826129c0565b602082019050919050565b60006020820190508181036000830152612a25816129e9565b9050919050565b7f4552433732313a20617070726f766520746f2063616c6c657200000000000000600082015250565b6000612a62601983611d67565b9150612a6d82612a2c565b602082019050919050565b60006020820190508181036000830152612a9181612a55565b9050919050565b7f4552433732313a207472616e7366657220746f206e6f6e20455243373231526560008201527f63656976657220696d706c656d656e7465720000000000000000000000000000602082015250565b6000612af4603283611d67565b9150612aff82612a98565b604082019050919050565b60006020820190508181036000830152612b2381612ae7565b9050919050565b6000612b3582611e0e565b91507fffffffffffffffffffffffffffffffffffffffffffffffffffffffffffffffff8203612b6757612b666124d7565b5b600182019050919050565b7f4e487b7100000000000000000000000000000000000000000000000000000000600052601260045260246000fd5b6000612bac82611e0e565b9150612bb783611e0e565b925082612bc757612bc6612b72565b5b828204905092915050565b6000612bdd82611e0e565b9150612be883611e0e565b925082612bf857612bf7612b72565b5b828206905092915050565b7f4e487b7100000000000000000000000000000000000000000000000000000000600052603260045260246000fd5b600081519050919050565b600082825260208201905092915050565b6000612c5982612c32565b612c638185612c3d565b9350612c73818560208601611d78565b612c7c81611da2565b840191505092915050565b6000608082019050612c9c6000830187611ea3565b612ca96020830186611ea3565b612cb66040830185611f8c565b8181036060830152612cc88184612c4e565b905095945050505050565b600081519050612ce281611ccd565b92915050565b600060208284031215612cfe57612cfd611c97565b5b6000612d0c84828501612cd3565b91505092915050565b7f4552433732313a206d696e7420746f20746865207a65726f2061646472657373600082015250565b6000612d4b602083611d67565b9150612d5682612d15565b602082019050919050565b60006020820190508181036000830152612d7a81612d3e565b9050919050565b7f4552433732313a20746f6b656e20616c7265616479206d696e74656400000000600082015250565b6000612db7601c83611d67565b9150612dc282612d81565b602082019050919050565b60006020820190508181036000830152612de681612daa565b905091905056fea26469706673582212201136304516e3c42175e8249d97a0f01ecee2ed8d942a83eb30ce7562e55c07a164736f6c63430008100033",
  "immutableReferences": {},
  "source": "// SPDX-License-Identifier: MIT\r\npragma solidity ^0.8.0;\r\n\r\nimport \"@openzeppelin/contracts/token/ERC721/ERC721.sol\";\r\nimport \"@openzeppelin/contracts/access/Ownable.sol\";\r\nimport \"@openzeppelin/contracts/utils/Counters.sol\";\r\nimport \"@openzeppelin/contracts/token/ERC20/IERC20.sol\";\r\n\r\ncontract DaksNFT is ERC721, Ownable {\r\n    using Counters for Counters.Counter;\r\n    IERC20 public tokenAddress;\r\n    uint256 public rate =1*10**2;\r\n\r\n    Counters.Counter private _tokenIdCounter;\r\n      \r\n    constructor(address _tokenAddress) ERC721(\"DaksNFT\", \"DFT\") {\r\n        tokenAddress=IERC20(_tokenAddress);\r\n    }\r\n\r\n    function safeMint(uint256 token_amount) public {\r\n        \r\n        tokenAddress.transferFrom(msg.sender,address(this), rate*token_amount);\r\n        uint256 tokenId = _tokenIdCounter.current();\r\n        _tokenIdCounter.increment();\r\n        _safeMint(msg.sender, tokenId);\r\n    }\r\n    function withdrawToken() public onlyOwner{\r\n        tokenAddress.transfer(msg.sender, tokenAddress.balanceOf(address(this)));\r\n\r\n    }\r\n    function sell_NFT(uint256 _amount)public{\r\n        require(_balances[msg.sender]>=_amount);\r\n        tokenAddress.transferFrom(address(this),msg.sender, rate*_amount);\r\n        _balances[msg.sender]-=_amount;\r\n\r\n    }\r\n}",
  "sourcePath": "C:\\Users\\Eshan\\Desktop\\minting Nft using ERC20 tokens\\contracts\\DaksNFT.sol",
  "compiler": {
    "name": "solc",
    "version": "0.8.16+commit.07a7930e.Emscripten.clang"
  },
  "schemaVersion": "3.4.7",
  "updatedAt": "2022-08-24T11:07:38.571Z",
  "networkType": "ethereum",
  "devdoc": {
    "kind": "dev",
    "methods": {
      "approve(address,uint256)": {
        "details": "See {IERC721-approve}."
      },
      "balanceOf(address)": {
        "details": "See {IERC721-balanceOf}."
      },
      "getApproved(uint256)": {
        "details": "See {IERC721-getApproved}."
      },
      "isApprovedForAll(address,address)": {
        "details": "See {IERC721-isApprovedForAll}."
      },
      "name()": {
        "details": "See {IERC721Metadata-name}."
      },
      "owner()": {
        "details": "Returns the address of the current owner."
      },
      "ownerOf(uint256)": {
        "details": "See {IERC721-ownerOf}."
      },
      "renounceOwnership()": {
        "details": "Leaves the contract without owner. It will not be possible to call `onlyOwner` functions anymore. Can only be called by the current owner. NOTE: Renouncing ownership will leave the contract without an owner, thereby removing any functionality that is only available to the owner."
      },
      "safeTransferFrom(address,address,uint256)": {
        "details": "See {IERC721-safeTransferFrom}."
      },
      "safeTransferFrom(address,address,uint256,bytes)": {
        "details": "See {IERC721-safeTransferFrom}."
      },
      "setApprovalForAll(address,bool)": {
        "details": "See {IERC721-setApprovalForAll}."
      },
      "supportsInterface(bytes4)": {
        "details": "See {IERC165-supportsInterface}."
      },
      "symbol()": {
        "details": "See {IERC721Metadata-symbol}."
      },
      "tokenURI(uint256)": {
        "details": "See {IERC721Metadata-tokenURI}."
      },
      "transferFrom(address,address,uint256)": {
        "details": "See {IERC721-transferFrom}."
      },
      "transferOwnership(address)": {
        "details": "Transfers ownership of the contract to a new account (`newOwner`). Can only be called by the current owner."
      }
    },
    "version": 1
  },
  "userdoc": {
    "kind": "user",
    "methods": {},
    "version": 1
  }
}